:0200000460009A
:100000004643464200000156000000000101020084
:1000100000000000000000000000000000000000E0
:1000200000000000000000000000000000000000D0
:1000300000000000000000000000000000000000C0
:1000400000000000010406010000000000000000A4
:100050000000800000000000000000000000000020
:100060000000000000000000000000000000000090
:100070000000000000000000000000000000000080
:10008000EB04180AFF1E04320126000000000000E5
:100090000000000000000000000000000000000060
:1000A0000000000000000000000000000000000050
:1000B0000000000000000000000000000000000040
:1000C0000000000000000000000000000000000030
:1000D0000000000000000000000000000000000020
:1000E0000000000000000000000000000000000010
:1000F0000000000000000000000000000000000000
:1001000000000000000000000000000000000000EF
:1001100000000000000000000000000000000000DF
:1001200000000000000000000000000000000000CF
:1001300000000000000000000000000000000000BF
:1001400000000000000000000000000000000000AF
:10015000000000000000000000000000000000009F
:10016000000000000000000000000000000000008F
:10017000000000000000000000000000000000007F
:10018000000000000000000000000000000000006F
:10019000000000000000000000000000000000005F
:1001A000000000000000000000000000000000004F
:1001B000000000000000000000000000000000003F
:1001C000000100000010000001000000000000001D
:1001D000000001000000000000000000000000001E
:1001E000000000000000000000000000000000000F
:1001F00000000000000000000000000000000000FF
:10020000FFFFFFFFFFFFFFFFFFFFFFFFFFFFFFFFFE
:10021000FFFFFFFFFFFFFFFFFFFFFFFFFFFFFFFFEE
:10100000D1002043F1150060000000000000000046
:10101000201000600010006000400360000000002D
:1010200000000060004C030000000000FFFFFFFF15
:10103000FFFFFFFFFFFFFFFFFFFFFFFFFFFFFFFFC0
:10104000FFFFFFFFFFFFFFFFFFFFFFFFFFFFFFFFB0
:10105000FFFFFFFFFFFFFFFFFFFFFFFFFFFFFFFFA0
:10106000FFFFFFFFFFFFFFFFFFFFFFFFFFFFFFFF90
:10140000824205D051F8043B40F8043B8242F9D8AF
:10141000704700BF044A05494FF0000342F8043BFF
:101420009142FBD8704700BFC0620020809000202E
:1014300080B5BFF34F8F00F0ADFE544C544B0820E5
:101440005449C3F85401544AC3F800115348C3F82F
:10145000F0405349FFF7D4FF524A53495348FFF72E
:10146000CFFF534CFFF7D6FF4FF470004FF0E02151
:101470000023504AC1F8880D44F823200133B02BD3
:10148000FAD14D4B80214D4A03F8011B9342FBD109
:101490004FF0E0254A4F4B4A4FF0FF31C5F8084D59
:1014A0000026D5F8243D43F4E023C5F8243DFB692C
:1014B00023F07F0343F04003FB617B6A23F07F034B
:1014C00043F040037B629166D1661167516700F07B
:1014D00069FE3D4B63223D49A3633D4BE363032318
:1014E0006A613C4AAE612B61C5F8202DD5F8FC2D10
:1014F000394B42F08072C5F8FC2D1A6842F00102A7
:101500001A605B680B6001F011F8344801F0BCF917
:10151000F96E334B334A41F44051F9661E60C3F80B
:101520000861C3F81861C3F82861C3F83861936B88
:10153000DB0708D442F615632B4951651365936B9D
:1015400043F001039363274A284C936843F0011347
:10155000936000F0B1FE01F04DF901F09DF901F04A
:1015600013F800F019FE2368132BFCD901F0A4F83E
:101570002368B3F5967FFBD300F012FE00F00EFE59
:1015800001F086F901F06CF930BFFDE70C0D111385
:1015900000800D401B10182084AD020000000000E8
:1015A000802F0060C062002008DD02600000002083
:1015B000006000207D94010000E400E0A0E400E071
:1015C00000C00F4000C00A40F9770100688E00207B
:1015D000D578010000002020001000E00046C32361
:1015E0000040084000400D400000C0566C8E0020B6
:1015F000054B4FF42A01054A05485A641864054A08
:1016000099639546FFF714FF00C00A40FFAFAAAAEE
:1016100007002000000005201BB9124B1B6F9B0424
:101620001ED400F03F000F4B22F0604221F06041D9
:1016300040F489101867C3F88010C3F890201A6F1F
:1016400022F480521A671A6F002AFCDAD3F870115C
:10165000054A0A40C3F870211A6F22F480321A67D3
:10166000704700BF00800D40FF7F7FFF43690A4A3B
:1016700003EB011010B4037A084C02EB0313D3E917
:1016800001321460C2681A6003690BB142691A60C2
:101690005DF8044B704700BF0C39002061F8010071
:1016A0004369027E03EB021292F808C08C451CD0FD
:1016B0001A7AFF2A19D0914210B5044616D01A7E24
:1016C000FF2A06D00121D3E9002312681A4201D172
:1016D000217610BD064B0522204603EB0C135B68F8
:1016E0001A60FFF7C3FF2176F3E770470021EAE7AE
:1016F0000C39002043690A4A03EB011010B490F83A
:101700002830084C02EB0313D3E901321460C26A9B
:101710001A60036B0BB1426B1A605DF8044B7047A3
:101720000C39002061F801004369427E03EB02128C
:1017300092F828C08C451ED093F82820FF2A1AD092
:10174000914210B5044617D093F83820FF2A06D0EE
:101750000121D3E9002312681A4201D1617610BD3C
:10176000064B0522204603EB0C135B681A60FFF75B
:10177000C1FF6176F3E770470021EAE70C390020EA
:10178000164942698B6B23F47C0343F4802370B5C4
:101790008B630446124DD2E900130A681A430369A9
:1017A0000A60022200211A610E4A19619A6401221C
:1017B0005A629D624FF43035DD624FF001159E6C28
:1017C0001E6519629D651A61017EFFF74FFF617EFC
:1017D0002046BDE87040FFF78DBF00BF00C00F403E
:1017E000B80B05053B372819B1F5607FF0B50E46FB
:1017F0008DB028BF4FF460760F46054672B62E4B6B
:1018000000247022186021462C4B2D481C8001F0CA
:101810004FF8CFB121462A484FF0010C4A0901F098
:101820001F03013150F822400CFA03F38E4243EAC1
:10183000040340F82230F1D82846002343800133C6
:1018400000F582709E42F9D81E4C257815B162B61B
:101850000DB0F0BD082001F013F81B4B80220646A6
:10186000009302A90693194B0271056008A8029320
:1018700000F0FEFF06A9164A304601F011F8069B5B
:1018800008A8DB689847009B02A8DB689847237884
:10189000002BDCD10F4B104AC3F858210F49D02040
:1018A0004FF0E023402281F84600C3F808210123CD
:1018B000237062B60DB0F0BD446D0020089000208A
:1018C0004C6D002023900020382B00200D72010069
:1018D0001B100100006000201972010000E400E00C
:1018E000204B002030B4C3E92000C3E92200C3E943
:1018F0002400C3E92600C3F8A800BFF34F8F4FF0C0
:10190000E0231949194AC3F8701FC3F8702FBFF3B9
:101910004F8FBFF36F8F164B0146164C01229D6807
:1019200004F6DC749D601863134B44F81C0C1846D5
:1019300002330088A34212FA80F21144F7D192B226
:101940000C4B42EA0142C3F8DC2FBFF34F8F4FF03C
:10195000E023094AC3F8682FBFF34F8FBFF36F8F9F
:1019600030BC704700FF272080FF2720A0FF2720E2
:1019700000800F4000F02720C0FF2720B24BD3F893
:1019800080200B2A2DE9F0470D461BD14FF0FF3C7C
:10199000AE49AF4BAF4E081D8CEA020C20240CF070
:1019A0000102013C03FB02F282EA5C0CF7D1B04277
:1019B00002D04A680146EEE7DFF88C82D8F8A830FA
:1019C0009C4579D02B681722A34928465B68984725
:1019D000284600F051FF2B684822A0495B68284642
:1019E0009847284600F048FF2B6849229C495B68CD
:1019F00028469847284600F03FFF2B682422994943
:101A00005B6828469847284600F036FF2B68472237
:101A100095495B6828469847284600F02DFF2B68BB
:101A20003F2292495B6828469847284600F024FFE9
:101A30008F4B9C68A2070DD51A6B8E4B9A422B6870
:101A400000F0748140228C495B68284698472846FC
:101A500000F012FF670700F15F81260700F1528155
:101A6000E00600F14581A10600F13881620600F12F
:101A70002B81230600F1DD8014F4807440F0AD80EA
:101A8000714BD3F8C06096B1D3F8DC700122C0333B
:101A90007A48194602330988834212FA81F21444C3
:101AA000F7D193B243EA04439F4200F07C81FFF7F1
:101AB00017FF0120BDE8F0872B680C2270492846EB
:101AC0005B689847284600F0D7FE2A68D8F8A490AB
:101AD00028466C4BD2F804A0A3FB09276A497F096A
:101AE000A3FB072326225E09C8F8A460D0476749F4
:101AF0000A222846A1FB06312346090901EB4101D0
:101B0000A6EBC10100F0D0FE2B68C6EB0616012241
:101B10005B6828465E4998472346A7EB86010A2260
:101B20002846C7EB071700F0BFFE2B680122584973
:101B30005B68284698472346A9EB87010A22284676
:101B400000F0B2FE284600F097FE2B68242251498F
:101B50005B682846984723461022D8F898102846F4
:101B600000F0A2FE284600F087FED8F88860002E1C
:101B700040F0DF80344ED6F88C40002C40F0FA80E4
:101B80002B682222444928465B6898472E4B022145
:101B9000284693ED280AB7EEC00A00F05DFE2B68D8
:101BA00004223E495B6828469847284600F064FEB8
:101BB0002B681D223A495B6828469847394A3A48BB
:101BC000002311680A22A0FB01012846890C00F0BD
:101BD0006BFE2B680322354924E72B682922344900
:101BE00028465B689847284600F046FE204928684A
:101BF00021228B684468284623F480738B602D492A
:101C0000A047284600F038FE2B6842222A495B682C
:101C100028469847284600F02FFE284A284B0721DF
:101C20001964936B43F040039363BFF34F8F30BF4E
:101C3000FDE72B682122234928465B689847284600
:101C400000F01AFE18E700BF00FF272080FF2720C2
:101C50002083B8EDA8FF27204C45002064450020D4
:101C6000B0450020FC450020244600206C460020A2
:101C700000800F40F100AD0BF8460020DCFF27206C
:101C80003C400020898888884C400020ABAAAAAA42
:101C9000D835002074400020FC440020204500205E
:101CA00028450020F04F002083DE1B4348450020DC
:101CB0002C480020584800207C48002000400D405F
:101CC00000C00A40084800202B6821229C49284671
:101CD0005B689847284600F0CFFDCAE62B682922AA
:101CE000984928465B689847284600F0C5FDBDE640
:101CF0002B682622944928465B689847284600F0BE
:101D0000BBFDB0E62B682A22904928465B689847BD
:101D1000284600F0B1FDA3E62B6827228C4928460F
:101D20005B689847284600F0A7FD96E64822894957
:101D30008AE62B680822884928465B68984723462C
:101D40001022D8F88810284600F0AEFD284600F092
:101D500093FDF40769D4B00700F15381310700F116
:101D60004481F20600F15D81B30667D52B682A2213
:101D70007A495DE02B680822794928465B689847D4
:101D800000231022D6F88C10284600F08DFD28463E
:101D900000F072FDA00767D461007FF5F1AE2B68FB
:101DA0001B22704963E00124DFF8F4A1DFF8F4910D
:101DB000DFF8D48105E00134072C3FF478AED8F881
:101DC000C060631E012707FA03F23242F3D009EB29
:101DD00083062B680E2251465B68284698472146A9
:101DE000284600F069FD2B6805225F495B6828469C
:101DF0009847716800230A22284600F055FD2B6899
:101E000004225A495B6828469847716800231022CB
:101E1000284600F049FD2B683A4655495B6828463C
:101E20009847284600F028FDC5E72B68282251492D
:101E30005B6828469847284600F01EFD37063CD4CC
:101E4000F4051BD4B00500F1D880710500F1D180F4
:101E5000320500F1E280F30400F1DB80B70416D50F
:101E60002B68312244490CE02B682622434928463E
:101E70005B689847284600F0FFFC81E62B6820222B
:101E80003F495B6828469847284600F0F5FC340433
:101E900040D4F0032ED4B10300F1B78072034BD4C9
:101EA000330300F1C680F70100F1BF80B4017FF574
:101EB00061AE2B681B2233491FE02B682122324C74
:101EC000284632495B68984710220023D4F89010C6
:101ED000284600F0E9FCD4F890201F2A64D92C4B46
:101EE0009A4203D320339A42C0F0A780284600F0DC
:101EF000C3FCA5E72B68232226495B682846224EAF
:101F00009847284600F0B8FCD6F88C40002C3FF4E7
:101F100037AE2FE72B6821221F4928465B68984778
:101F2000194900231022D1F89410284600F0BCFC77
:101F3000284600F0A1FCACE72B6828221749DCE713
:101F4000E4470020B8470020904700206447002065
:101F50003C470020AC4600209C4000204C41002023
:101F6000AC440020E0440020D0480020D8480020A5
:101F7000B0420020A840002070430020B844002058
:101F8000604200209044002000FF2720784100207C
:101F900080900020C8430020A4430020204400205B
:101FA000C0480020C0FF27202B681F222649284652
:101FB0005B689847D4F8981000231022284600F058
:101FC00073FC2B683F2221495B6828469847D4F868
:101FD000981000231022284600F066FC2B681D2272
:101FE0001B495B682846984780E72B6829221949D6
:101FF0001EE72B684422184943E72B682D22174916
:102000003FE72B682122164912E72B683122154938
:1020100073E72B683322144933E72B683F221349B7
:102020002FE72B682522124902E72B682822114945
:1020300063E72B68162210495FE72B6842220F499D
:1020400028465B68984751E79C410020BC4100202E
:10205000FC410020F8400020B442002084420020CF
:10206000D4400020EC4300203C430020FC420020F0
:1020700024410020644400204C4400201C420020E5
:10208000124BD3F880300B2B1ED14FF0FF3210488B
:1020900030B5104D104C01E06B68754605F1040E2B
:1020A0005A40202102F00103013900FB03F383EAC7
:1020B0005202F7D1A645EFD1044BD3F8A800801AFD
:1020C000B0FA80F0400930BD0020704700FF2720A3
:1020D0002083B8ED80FF2720A8FF27202B4A00216E
:1020E000012310B4C2F8A000C2F8A410C2F8B030A6
:1020F0005369DB07FCD501234FF480342349536136
:10210000C2F8A000C2F8A440C2F8B0304B69DC07A6
:10211000FCD501234FF400341C4A4B61C1F8A000E8
:10212000C1F8A440C1F8B0305369D907FCD50123E8
:10213000174C16495361C2F8A000C2F8A440C2F877
:10214000B0304B69DB07FCD5D1F8003145F60D50B6
:1021500021249AB24C61824214D045F69D518A42A4
:102160000CD1C3F34253032B0CD0A3F104035DF84D
:10217000044BB3FA83F35B091801704700205DF844
:10218000044B704708205DF8044B704700402A401C
:1021900004000300704700BF704700BF704700BFD6
:1021A00000BF704710B44FF0E023002110243248E4
:1021B000C3F8941DC3F89C4D1124C3F8A00D2F48FB
:1021C000C3F89C4D1224C3F8A00D2D48C3F89C4DB4
:1021D0002C4AC3F8A00D2C4C42F015022B48C3F832
:1021E0009C4DC3F8A00D2A4C2A48C3F89C4DC3F857
:1021F000A00D294CC3F89C2D2848294AC3F8A04DAE
:10220000C3F89C0DC3F8A02D02F5A022254C0C327A
:102210002548C3F89C4DC3F8A02D244AC3F89C0D53
:10222000C3F8A02D02F14062214C02322148C3F8CC
:102230009C4DC3F8A02D0A32C3F89C0DC3F8A02D05
:1022400000BF00BF00BF00BF00BF0122C3F8942D34
:10225000BFF34F8FBFF36F8FC3F8501FBFF34F8F84
:10226000BFF36F8FD3F8142D5DF8044B42F4403266
:10227000C3F8142D704700BF3F0000102500080769
:1022800009001000809000201300200021000207A8
:10229000140000202500081309000010160020205B
:1022A00027000B1317000040180000602F000B07D9
:1022B000190000701A000080F0B5824B1822824D80
:1022C0000120824F83B0C3F85C528149C3F8607229
:1022D000804CC3F86452A5F530457F4EC3F8685270
:1022E00048F20C75C3F86C42C3F87042C3F87442EC
:1022F000C3F878424FF0FF34DA661A675A679A6774
:10230000DA67C3F88020C3F88420C3F88820C1F8B6
:102310002C03724AC1F83003C1F83403C1F8380302
:10232000C1F83C03C1F85003B1696D4B0A406D48D8
:102330006D4913436D4AB361D6F8843043F00C0302
:10234000C6F88430036843F00203036003682B403F
:1023500021251A43664B026044608A68654C13402D
:10236000654A43F000538360C36823F07803C36079
:10237000036A134023430362036A13405F4A234303
:1023800040F2056443628262C2620022D1F8B83032
:1023900023F03F0343F00103C0F8B830D1F8BC305C
:1023A000574923F03F0343F00103C0F8BC300261FA
:1023B0000567C0F880404567C0F884400224036880
:1023C00023F00203036081614E4B4F49C46143F81F
:1023D000042B8B42FBD1434D2B6843F001032B6050
:1023E0002C6814F00104FBD14549022340F2F56248
:1023F0002046A96140F29941EB6140F26643C5F87D
:10240000002242F20142C5F81032404BC5F82012BA
:10241000C5F8303240F23543C5F834223C49C5F89E
:1024200040323C4BC5F850123B4AC5F8543242F298
:102430000123C5F86022C5F86432FFF74FFE064657
:10244000002836D083024FF480222B660123C5F882
:10245000A040244CC5F8A420C5F8B0306369DA0761
:10246000FCD50125370565613846FFF737FE321880
:102470002A4BD2B21A7078B180024FF480231949E6
:102480006066C4F8A070C4F8A430C4F8B0504B69BA
:10249000DB07FCD501234B6121490024214801239E
:1024A0000094401A00EB02521F4800F009FA03B0F2
:1024B000F0BD1D4B194A18601070D860C3E90100C7
:1024C00003B0F0BD00801F40F9B00100F910010019
:1024D00000841F40F970010000C00F40FFFCFF1F87
:1024E0000003008000402A4000802A401200FFFFC5
:1024F000FF37F7004000008000FFF07CFF000F83F3
:10250000F05AF05A00422A4000432A409F041830F3
:10251000EB06180A063201263806180A2E9000200B
:102520008005DC7000000070D4780020F0B4154AFB
:1025300040274FF480314FF480564FF400554FF44C
:10254000404443F24200136913F0020F0ED113F41A
:10255000005F0FD013F4805F0ED0002BF3DA13F47A
:10256000803F0BD15B060BD5F0BC70479461516185
:102570009061E8E75561E6E75661E4E79161E2E7DB
:102580005761E0E700800D403F4A03203F49F3EEEA
:10259000095AD2F880304FF0000C9FED3D6A23F0CD
:1025A00001039FED3C5A30B4C2F88030C2F890006D
:1025B000D1F8E010384DCBB2384C39482B6007EEDB
:1025C000903A0B0DC1F30B21F8EEE77A06EE903A44
:1025D00007EE101A334BB8EEC77A2160F8EEE66AC0
:1025E000314937EEC66A37EEC55A76EEC76A77EEDE
:1025F000E57A26EE266AC3ED006A25EE265AD2F861
:10260000803067EEA64AC0ED007AC6EE275A27480A
:1026100085EE276AC4EEA76A75EE875AFCEEE55A86
:1026200036EE076A15EE904ABCEEC66A43EA0453DA
:1026300076EE877AC2F8803016EE103AD2F89041E2
:10264000FCEEE77A01EA0341214317EE903AC2F823
:102650009011C3F30B03D2F890110B431449C2F845
:102660009031D2F8803043F00203C2F88030114B31
:1026700080F840C0C1F840314FF0E023012230BC67
:10268000C3F80821704700BF00810D4000441F407F
:102690000000AA420000B442308700202C870020AE
:1026A00034870020388700200000FF0F00E400E09E
:1026B0000060002069960100314B40F6617210B550
:1026C000C3F8202140F2044400F0CEF82D4A2E49F0
:1026D000D2F880302D4843F00303C2F880302C4BF1
:1026E000C1F8604102681A4203D1D1F8A8319A07B3
:1026F0001BD0254A4FF00041244B5963D2F840319A
:1027000043F00203C2F84031D2F840319B07FBD4BA
:102710004FF400304FF0E0211C4B4FF00042C1F865
:102720008C0219209A6300F0CFF8184A4FF08040CD
:10273000154C002190630A20164B11604FF4207253
:10274000C4F8A801184600F0B3F84FF4800203461D
:102750004FF4810040F243111860C4F858311A64F4
:102760000D4B0E4AC4F84811C3F804224FF0E02282
:102770004FF400310123C2F80C11C4F8403110BDF0
:1027800000800D4000C00F4000002E4000900D4022
:10279000001C1E0000000020006000205198010075
:1027A00008B50E4B1B6E9B0700D4FBBE72B60C4BDC
:1027B00000200C4AC3F8400103F160430A49A3F525
:1027C0005F2311649D46BFF34F8F4FF400130748FA
:1027D000074ADB6902609B68984700BF00441F40BE
:1027E00000002E4000C00A4003002000008020208E
:1027F000000012EB104BA020104AD96E41F440317A
:1028000010B4D96640F23764D96E41F44071D9668C
:1028100054649064936C1B06FCD4094A40F23761FF
:10282000A02351649364936C13F08003FBD1054A99
:1028300013705DF8044B704700C00F4000400C401F
:1028400000800C402D900020F8B500BFF8BC08BCFB
:102850009E467047000000005FF800F0A97D01006F
:102860005FF800F0E98D01005FF800F08D9F010036
:102870005FF800F0090200005FF800F0857C0100BD
:102880005FF800F02D8F01005FF800F0C9830100B0
:102890005FF800F04D5702005FF800F0659301000B
:1028A0005FF800F0A97901005FF800F0D97C010021
:1028B0005FF800F0D55402005FF800F06D7C010075
:1028C0005FF800F05DAF01005FF800F0E586010001
:1028D0000501000039A8000095CD000019D30000C3
:1028E00039D3000059D7000039E1000051E1000060
:1028F00069E1000081E1000099E10000B1E1000020
:10290000C9E10000E1E10000F9E1000011E200008E
:1029100029E20000C5E70000DDE70000F5E7000060
:102920000DE8000025E800003DE8000055E8000043
:102930006DE80000A1E80000B5E80000CDE8000067
:10294000E5E80000FDE8000015E9000021F70000BF
:082950001D7B0100F1B701003D
:1029580080C00F40000000031900000010000000B4
:10296800E8841F4001000000FF000000FF00000095
:102978000000000000000000180000001000000027
:10298800E4841F4001000000FF000000FF00000079
:1029980000000000000000001F000000017201009C
:1029A80070C00F40000C0000110000001100000072
:1029B800E0841F40020000002C000000120000000C
:1029C800E0841F400100000010000000110000001A
:1029D800DC841F40020000002D00000012000000EF
:1029E800DC841F40010000001E000000F57101009A
:1029F80070C00F40C000000012000000130000006B
:102A0800D0841F4001000000FF000000FF0000000C
:102A18000000000000000000130000001300000088
:102A2800CC841F4001000000FF000000FF000000F0
:102A380000000000000000001C000000E971010017
:102A48001E035400650065006E00730079002000C5
:102A58004D0049004400490078003100360000006C
:102A680018035400650065006E0073007900640067
:102A7800750069006E006F000403090409027502FD
:102A8800030100C032080B00020202010009040021
:102A980000010202010005240010010524010101C2
:102AA800042402060524060001070582031000100D
:102AB80009040100020A00000007050302400000A3
:102AC8000705830240000009040200020103000018
:102AD8000724010001E7010624020101000624027F
:102AE8000202000924030103010201000924030270
:102AF8000401010100062402010500062402020661
:102B08000009240301070106010009240302080142
:102B1800050100062402010900062402020A000930
:102B28002403010B010A0100092403020C01090115
:102B380000062402010D00062402020E00092403E7
:102B4800010F010E01000924030210010D01000606
:102B580024020111000624020212000924030113B1
:102B680001120100092403021401110100062402C4
:102B78000115000624020216000924030117011694
:102B88000100092403021801150100062402011995
:102B980000062402021A00092403011B011A01007D
:102BA800092403021C01190100062402011D000664
:102BB8002402021E00092403011F011E010009242A
:102BC800030220011D01000624020121000624023F
:102BD800022200092403012301220100092403021F
:102BE80024012101000624020125000624020226F0
:102BF80000092403012701260100092403022801F2
:102C0800250100062402012900062402022A0009DF
:102C18002403012B012A0100092403022C012901A4
:102C280000062402012D00062402022E00092403B6
:102C3800012F012E01000924030230012D01000695
:102C48002402013100062402023200092403013360
:102C58000132010009240302340131010006240273
:102C68000135000624020236000924030137013623
:102C78000100092403023801350100062402013944
:102C880000062402023A00092403013B013A01002C
:102C9800092403023C01390100062402013D000613
:102CA8002402023E00092403013F013E01000924D9
:102CB800030240013D010009050402400000000034
:102CC800142501100105090D1115191D2125292D9E
:102CD8003135393D09058402400000000014250102
:102CE8001003070B0F13171B1F23272B2F33373BFB
:102CF8003F00000009027502030100C032080B0002
:102D08000202020100090400000102020100052478
:102D1800001001052401010104240206052406000F
:102D2800010705820310000509040100020A0000DA
:102D380000070503020002000705830200020009DC
:102D480004020002010300000724010001E7010654
:102D580024020101000624020202000924030103DF
:102D680001020100092403020401010100062402F2
:102D780001050006240202060009240301070106D2
:102D880001000924030208010501000624020109C3
:102D980000062402020A00092403010B010A0100AB
:102DA800092403020C01090100062402010D000692
:102DB8002402020E00092403010F010E0100092458
:102DC800030210010D01000624020111000624026D
:102DD800021200092403011301120100092403024D
:102DE800140111010006240201150006240202162E
:102DF8000009240301170116010009240302180120
:102E0800150100062402011900062402021A00090D
:102E18002403011B011A0100092403021C011901E2
:102E280000062402011D00062402021E00092403D4
:102E3800011F011E01000924030220011D010006D3
:102E4800240201210006240202220009240301238E
:102E580001220100092403022401210100062402A1
:102E68000125000624020226000924030127012661
:102E78000100092403022801250100062402012972
:102E880000062402022A00092403012B012A01005A
:102E9800092403022C01290100062402012D000641
:102EA8002402022E00092403012F012E0100092407
:102EB800030230012D01000624020131000624021C
:102EC80002320009240301330132010009240302FC
:102ED80034013101000624020135000624020236BD
:102EE80000092403013701360100092403023801CF
:102EF800350100062402013900062402023A0009BD
:102F08002403013B013A0100092403023C01390171
:102F180000062402013D00062402023E00092403A3
:102F2800013F013E01000924030240013D0100095F
:102F38000504020002000000142501100105090D16
:102F48001115191D2125292D3135393D0905840211
:102F580000020000001425011003070B0F13171BB4
:102F68001F23272B2F33373B3F0000000A060002A0
:082F7800EF020140010000001E
:102F80000000000000000000000000000000000041
:102F90000000000000000000000000000000000031
:102FA000F8B54FF084439D695A6915400DD0254FFF
:102FB00001269D6195FAA5F4B4FA84F457F82430FB
:102FC00006FA04F49847A543F4D11F4B9D695A694A
:102FD00015400DD01D4F01269D6195FAA5F4B4FA58
:102FE00084F457F8243006FA04F49847A543F4D142
:102FF000174B9D695A6915400DD0164F01269D61EA
:1030000095FAA5F4B4FA84F457F8243006FA04F4D7
:103010009847A543F4D1104B9D695A6915400DD0CE
:103020000E4F01269D6195FAA5F4B4FA84F457F881
:10303000243006FA04F49847A543F4D1BFF34F8F28
:10304000F8BD00BF9C5A0020004000421C5B0020DD
:10305000008000429C5B002000C000421C5C0020FD
:103060000548064B1B1AD90F01EBA301491002D0EA
:10307000034B03B118477047C0620020C0620020B4
:103080000000000008B5054B1BB105490548AFF32A
:103090000080BDE80840FFF7E3BF00BF000000006C
:1030A000B0820020004C036000207047704700BFD2
:1030B00040697047807C704781747047002070477A
:1030C000006910B10368DB6818477047006910B1E8
:1030D00003681B6918477047006910B103685B6992
:1030E00018474FF0FF307047006910B103689B69C3
:1030F00018477047006980B10368012200B583B0AA
:103100009B680DF10701984720B19DF8070003B0B7
:103110005DF804FB4FF0FF30F9E74FF0FF307047E8
:1031200000B5006983B08DF8071028B1036801224B
:103130000DF10701DB68984703B05DF804FB00BFA1
:10314000036D0BB101207047406D003818BF01209E
:10315000704700BF704700BFC36D33F9110070475F
:10316000C06D70470022064910B44FF47A740273A0
:1031700001600261C0E901245DF8044B704700BFA3
:10318000C0280020036818470B680360704700BF21
:103190000B680360704700BF704700BF704700BFF7
:1031A000082070470020704710B5044617F08AFFCA
:1031B000204610BD38B5054CA4F19C050C3C2046BA
:1031C00017F080FFAC42F9D138BD00BF3C6D002044
:1031D0002DE9F047C56904468A46002D67D0DAF824
:1031E0000830226A002B5DDDDAF80030033298786F
:1031F000034628B19AF80E300344FF2B28BFFF2363
:103200009AF8360000FB03331B1202F8033CDAF88D
:1032100000301878034628B19AF80C300344FF2B8D
:1032200028BFFF239AF8340000FB03331B1202F877
:10323000023CDAF800305878034628B19AF80D308D
:103240000344FF2B28BFFF239AF83500033200FB0D
:1032500003331B1202F8043CDAF808009AF80C90C9
:103260009AF80D8001389AF80E70DAF800300028CC
:103270009AF80F509AF810E09AF811C0A5EB0905DA
:103280009AF91260AEEB080EACEB070C8AF80C5002
:1032900033448AF80DE08AF80EC0CAF80030CAF844
:1032A0000800A4DCE069BDE8F0470CF025B94E68E1
:1032B00006EB4607384623F0F5FD2062B80023F000
:1032C000F1FD60621C2018F0F1FD626A0680426028
:1032D000FF22E0610275226A856182601122C0E9E5
:1032E000035542800CF018F879E700BF2DE9F04152
:1032F00094B0154604461A4601AE0F4601463046C4
:103300000CF04EFD059785EAE57303AAA3EBE57380
:10331000CDE9063396E80300ADF81010090C0390D0
:103320008DF8121092E803000A0C1290ADF84C10C0
:103330008DF84E20A27C012A1ED000220892ADF802
:103340002420032203EB430E0DF1240C11A90023CA
:103350008DF826204CF8043F8C457344FAD1002D9B
:1033600002DAFD238DF82630236805A920461B6B61
:10337000984714B0BDE8F0811B490DF1230C4FF4C0
:10338000807E0A78013202F00702D0010A709107AC
:10339000C0B248BF40F04000520708AA48BF40F002
:1033A000200092F828101030C0B2C9B1BEFBF1F174
:1033B000C9B24E1CF6B206FB0007D670C7F3072849
:1033C0003F1208F1FF380CBF177082F8008006B179
:1033D000D17001329445B4D092F828100029E5D17B
:1033E000D1701170F5E700BF2A900020034B10B593
:1033F000044603600CF09CFC204610BD20280020F1
:1034000010B504464FF4C47118F054FD204610BDA9
:10341000054B10B5044603600CF08AFC28212046B9
:1034200018F048FD204610BD2028002010B50446A5
:1034300017F0FCFA204610BD10B50446806D18B197
:1034400023F038FD0023A365236D2BB104F1180090
:10345000BDE8104013F0A8BD636D002BF6D110BD80
:1034600090F81CC04160BCF1020FC26001D18368BA
:10347000184717F01DB900BF38B500F13202324BC2
:10348000B7EE001B044603EB820393ED000A9FEDA9
:10349000244B9FED253B9FED262BB8EE400B0BF008
:1034A0002DFFF3EE047AB7EEC00B284B53F82440FF
:1034B000B4EEE70AF1EE10FA0DD4DFED257AB4EEA2
:1034C000E70AF1EE10FA0DDD224B234D234AC4E941
:1034D0000653626238BD224B204A1D466262C4E92F
:1034E000065338BD9FED146BB7EEC00A9FED147BF9
:1034F00020EE060B20EE077BB7EEC00BFDEEC77B80
:1035000017EE905A1AF0BCFEF0EE407A134A62624F
:10351000FEEEE07A17EE903AC4E9065338BD00BFDC
:10352000000000000094C1400000000000947140C1
:103530000000000000004040E7D64954B2AC023F12
:10354000000000000000E04100000070605A002010
:1035500000D08946008C3C4B00BE6C5000B76D5BC0
:10356000DE5717002DE9F04192B0514E0346514904
:103570000FA8514D336017F06BFD33680A220CA879
:103580004E4FD96A17F0F0FD0CA90FA8DFF838816B
:1035900017F076FE4A4917F07BFE336804460A228C
:1035A000196B09A817F0E0FD09A9204617F068FE7D
:1035B000434917F06DFE336804460A22596B06A88A
:1035C00017F0D2FD06A92046002417F059FE014647
:1035D00003A817F05BFD06A817F074FD09A817F003
:1035E00071FD0CA817F06EFD0FA817F06BFD316888
:1035F0000CA817F04BFD33490CA817F049FE03A99E
:1036000017F03EFE01460FA817F040FD0FA817F077
:1036100059FD0CA817F056FD3368B7EE003B03EBDD
:103620008403B0EE431BDA6993ED0B0A930007EEB7
:10363000902AB8EE400B04EE103AB8EE672BB8EEC5
:10364000444B0BF05BFE9CB1B8FE400BB7EEC00BD9
:1036500072B6BDEEC00A85ED050A62B601341C35AE
:10366000042CD9D103A817F02DFD12B0BDE8F081CC
:103670003368DA6ABB42019204D0434502D0C2F1FA
:1036800011020192DB69B7EE003BDDED017A9A0091
:10369000B8EEE70B07EE903A04EE102AB0EE431BAB
:1036A000B8EE672BB8EE444B0BF028FECCE700BF1A
:1036B000CC5900206C22002008750020685D002095
:1036C000AC350020D40A0020E05C002003791BB157
:1036D00003790BB100230371704700BF10B5044696
:1036E000806D00B110BD4FF4807023F0DBFBA0654E
:1036F000B0B10022236D02703BB101464FF48072DD
:10370000184613F0A1F8A06D10BD636D002BE9D031
:1037100001464FF48072184610F044FDA06D10BDB4
:10372000014B1846A36510BD2B90002000B5836C9B
:1037300083B08DF8071043B101220DF1070118463F
:1037400011F09AFF03B05DF804FBC06C0028F9D0BB
:1037500001220DF1070110F063F803B05DF804FBDE
:1037600038B5056D6DB10BB1002038BD1146284646
:1037700011F0A6FD0028F7D02846BDE8384011F02A
:1037800041BF446D002CEFD020460FF05DF90028BA
:10379000EAD02046BDE838400FF0D0BF8A79A2F1C8
:1037A00050031B0622D402F26C72F0B54B7985B03F
:1037B000046D01330D798E784F78DBB209784CB106
:1037C000204601960095CDE90271042111F0AEFE6C
:1037D00005B0F0BD406D0028FAD001960095CDE906
:1037E000027104210FF0EEFE05B0F0BD002070471D
:1037F000836C13B1184611F093BEC06C08B10FF082
:103800006BBD7047836C00B583B063B101220DF1CD
:103810000701184611F00CFB01280CD19DF8070098
:1038200003B05DF804FBC06C28B101220DF1070163
:103830000FF024F8F0E74FF0FF30F1E7036D13B11C
:10384000184611F0C9BB406D08B10FF0E7B84FF052
:10385000FF30704710B50446006D80B1037813F057
:10386000700F00D110BD002111F02AFD606D0028FD
:10387000F8D000220023BDE810400FF0E5B8606DDD
:103880000028EFD090F8313013F0500FEAD000222A
:103890000023BDE810400FF0D7B800BF036D10B58E
:1038A0000C4682B02BB30DF1060201A9184611F0A7
:1038B000ADF838B3BDF80430BDF8062053EA020174
:1038C00020D0C2F3451C02F01F00D20AC3F34311FB
:1038D000400084F801C0A2705A0A013903F01F03A6
:1038E00002F5EA622070012061712371A27102B0B9
:1038F00010BD406D30B10DF1060201A90EF04AFF76
:103900000028D7D1002002B010BD00BF036D10B554
:103910000C4682B02BB30DF1060201A9184611F036
:1039200065F838B3BDF80430BDF8062053EA02014B
:1039300020D0C2F3451C02F01F00D20AC3F343118A
:10394000400084F801C0A2705A0A013903F01F0335
:1039500002F5EA622070012061712371A27102B048
:1039600010BD406D30B10DF1060201A90EF000FF4F
:103970000028D7D1002002B010BD00BF036D53B1A5
:10398000187810F008000DD0D8695B69C01A48BFDC
:103990006FF000407047436DA3B193F8310010F011
:1039A000080000D17047186919685A69401A5B68A5
:1039B00062EB0303B0F1004F73F10003F2D36FF039
:1039C000004070471846EDE7012A02D1016000204F
:1039D0007047022A05D0032AF9D0002AF7D10260E5
:1039E000F5E70B680360F2E710B420B101685DF8F9
:1039F000044B096A08475DF8044B704702682DE9DB
:103A0000F041536A0D460F4904468B4210D1867C23
:103A1000E37C33B157682B46626920466168B8473A
:103A20002268936A084A934207D1A674BDE8F081E0
:103A30004169984722680646EAE731462046BDE8D4
:103A4000F04118473501000039010000036D13B142
:103A5000586900217047436D13B1D3E900017047E5
:103A600018461946704700BF036D13B1D86900218D
:103A70007047436D13B1D3E90401704718461946E6
:103A8000704700BF38B5114B0446006C03F11402B7
:103A90002360A26140B103680D4A5B68934212D172
:103AA0004FF4C47118F006FA0A4A20460A4B226005
:103AB00040F8183FEFF3108572B616F099FE05B97D
:103AC00062B6204638BD9847EEE700BF00280020C8
:103AD00081040000E026002038270020F0B595B0D2
:103AE00000224FF47A74244F1831054604A88DF84B
:103AF0000C200097CDE90124CDE9122213F0C0FA81
:103B0000129B002B2DD05C20002618F0CFF9019BD2
:103B100004464660C36004A9029B183040F8083C84
:103B20009DF80C3000F8043C144B40F8183C144B42
:103B300040F8103C13F0F6F9124B4FF47A72A7607C
:103B40002B606368A66501336E602E73AA602C61DA
:103B500063600D4B04A8009313F026FA284615B0B5
:103B6000F0BD139B002BCED1064A2B732A602B612C
:103B7000C5E90134EDE700BFEC2800201029002042
:103B80006C290020C028002098260020836C13B1E7
:103B9000184611F021BAC06C08B10EF03FBF4FF0CB
:103BA000FF307047036D33B11B7813F0700F14BFF3
:103BB000012000207047406D30B190F8313013F093
:103BC000500F14BF01200020704700BF036D13B1D8
:103BD000184611F02DB9406D08B10EF04FBE4FF0F0
:103BE000FF30704738B50F4CA4F5825554F80C3CA3
:103BF000A4F5A074184623B1D4F83C11C91A18F0E2
:103C000059F904F11001A3690322084603B198474A
:103C1000636818461BB1E168C91A18F04BF9AC4249
:103C2000E4D138BD20120070036D13B1184611F0B5
:103C300077BC406D08B10FF04FBB704738B5074AED
:103C40000446074B026040F8183FEFF3108572B648
:103C500016F0CEFD05B962B6204638BDE02600203C
:103C60003827002038B5094A0446094B026040F85D
:103C7000183FEFF3108572B616F0BAFD05B962B6BB
:103C80002046442118F016F9204638BDE0260020D1
:103C90003827002038B5837F0446A3B1EFF31085A1
:103CA00072B6437F4160C26033B11DB1237F03B957
:103CB000637738BD62B6F9E715F030FF012363770B
:103CC000002DF3D1F6E7037F4160022BC26002D1E1
:103CD00083689847EAE716F0EBFCE7E738B5044657
:103CE0000C4B806D236018B123F0E4F80023A3652A
:103CF000236D04F118054BB1284613F055F9064B16
:103D00002846A36013F050F9204638BD636D002BA0
:103D1000F2D1F4E71029002098260020036D13B19A
:103D2000184611F0A9BC406D08B10FF079BD70477D
:103D3000836C13B1184611F09FBCC06C08B10FF032
:103D40006FBD70478A79A2F150031B0622D402F29C
:103D50006C72F0B54B7985B0046D01330D798E78B6
:103D60004F78DBB209784CB1204601960095CDE939
:103D70000271022111F0DAFB05B0F0BD406D0028A0
:103D8000FAD001960095CDE9027102210FF01AFCDC
:103D900005B0F0BD0020704738B504460E4B806D6D
:103DA000236018B123F086F80023A365236D04F186
:103DB00018056BB1284613F0F7F8084B2846A360A6
:103DC00013F0F2F820465C2118F074F8204638BD54
:103DD000636D002BEED1F0E710290020982600201B
:103DE000F0B595B015460F461A4601AE0146044699
:103DF00030460BF0D5FF059703ABA27CCDE9065505
:103E000096E80300012A03904FEA1140ADF8101024
:103E10008DF8120093E803004FEA11431290ADF8B9
:103E20004C108DF84E3011D000230893ADF824309B
:103E3000002120220AA88DF8261024F00BFB23680D
:103E400005A920461B6B984715B0F0BD1A4A0DF125
:103E500023074FF4807C1378013303F00703D90163
:103E600013709A07C9B248BF41F040015B0708AB25
:103E700048BF41F0200193F828201031C9B2C2B1E7
:103E8000BCFBF2F2D2B2501CC0B200FB0115D870DC
:103E9000C5F307262D1206F1FF360CBF1D701E70EC
:103EA00000B1DA7001339F42C2D093F82820002A73
:103EB000E6D1DA701A70F5E72A900020836C53B1CE
:103EC000187810F008000DD0D8695B69C01A48BF97
:103ED0006FF000407047C36CA3B193F8310010F04D
:103EE000080000D17047186919685A69401A5B6860
:103EF00062EB0303B0F1004F73F10003F2D36FF0F4
:103F0000004070471846EDE70D21014819F0D6BE74
:103F1000B40C002008B52221034819F0CFFE034855
:103F2000BDE8084016F06EBE500D00204C50002039
:103F300008484FF0010C0022132108B5064B80F809
:103F400000C006481A6019F0B9FE0548BDE80840EF
:103F500016F058BE4F900020CC860020980B002011
:103F60004C50002038B5134B0446006C03F114028A
:103F70002360A26140B103680F4A5B68934216D187
:103F80004FF4C47117F096FF0C4A20460C4B226088
:103F900040F8183FEFF3108572B616F029FC05B90A
:103FA00062B62046442117F085FF204638BD984769
:103FB000EAE700BF0028002081040000E02600207E
:103FC000382700202DE9F041BAB00546E422274900
:103FD00001A83AAE044617F0CFFE02E00C34A64228
:103FE0000CD02168284624F0AFFB0028F6D1D4E994
:103FF00001121F4B03EB8103C3F844211D4E012521
:104000001D4CDFF88C801D4F2946204616F0EEFD32
:1040100002214046013519F051FE56F8041F204692
:1040200016F0E4FD204616F0EDFD0E21384619F09D
:1040300045FE204616F0E6FD052DE5D11049142277
:10404000A1F1140024F05AF968B10E490C4C0E4A43
:104050000968A4F114050D4B116001221A700FCDEF
:104060000FC42B6823603AB0BDE8F081C006002081
:1040700000000070440100704C500020400D0020F2
:10408000580100706C8E0020F87C002035900020D4
:104090003C0D002038B50446064D2021064819F095
:1040A0000DFE2846214616F0A1FD2846BDE8384001
:1040B00016F0A8BD4C500020180D0020294B1B788D
:1040C0002DE9F0411BB1284A136801331360274BD7
:1040D000274C1D68236863B1264F22683B68264E33
:1040E0002B449B1A3B603368013333603368172BD2
:1040F00002D82560BDE8F081D7ED007AF3EE086ABA
:104100009FED1E6A0023F8EE677ADFF87C800A22B2
:104110001B4887EEA67A27EE267AC6EE077AF8FEC7
:10412000677AFCEEE77A17EE901AC8ED037A16F07C
:1041300093FD134816F066FD124B1A685AB1D8F871
:104140000C1043F69823B3FBF1F345F6C05101FB85
:1041500003F3013B1360002333603B602560BDE83F
:10416000F08100BF4F900020CC8600206C8E002094
:10417000FC7C0020748E00200475002000606A47DB
:104180004C500020205D00200000007070B50446F7
:104190000BF0F6FD164923689A698A421CD15A6AC7
:1041A00014498A421DD1A57CE27C2AB99B6A124A35
:1041B00093420CD1A57470BD5E68204600236269ED
:1041C0006168B04723680C4A9B6A9342F2D0294643
:1041D0002046BDE87040184720460021BDE87040E9
:1041E000104761692046904723680546DCE700BF19
:1041F0007D0A0000350100003901000030B4029C46
:1042000011469C4634B1012C1CD0022C0ED000204B
:1042100030BC7047056DF5B14FF0FF33934274EB3E
:104220000C04F4D3284630BC11F04AB8026D0AB32E
:10423000D36959184CF10003002BE8D1104630BC6B
:1042400011F03EB8026D62B1536959184CF1000388
:10425000002BDCD1F2E7406D0028D8D030BC0EF046
:10426000F3BB406D0028D2D0D0E900238A184CEB74
:104270000303F3E7406D0028C9D0D0E9042330BC24
:104280008A184CEB03030EF0DFBB00BF10B5094BDF
:1042900004460069236058B14368013B43603BB961
:1042A0000368DB6A9847206910B103685B68984728
:1042B000204610BDC028002010B50B4B04460069F5
:1042C000236058B14368013B43603BB90368DB6A34
:1042D0009847206910B103685B689847204614210D
:1042E00017F0E8FD204610BDC028002000000000A7
:1042F000F8B500F132022A4BB7EE003B044603EB5F
:104300008203B3EE004B04EB440493ED000AB0EEDD
:10431000431B9FED212BB8EE400B0AF0EFFF214A23
:10432000B8FE400BFCEEC07B1319155D0120ED00BB
:104330005C789F7817EE906AE400FF2D4FEAC7077C
:10434000194B28BFFF25FF2C1A4628BFFF24FF2F3B
:10435000EDB228BFFF27E4B2FFB212E08C468E46D2
:104360000130033283F87DE1033B112883F881C1DA
:1043700083F8821182F87DE182F87EC182F87F1194
:1043800007D086424FF00201A446AE46E6D3394636
:10439000E6E7F8BDAFF300800000000000004040F9
:1043A00000000070E8130020287D0020214B9A694E
:1043B000D2E90010D3680968006810B41842946804
:1043C00001EA04012ED0137C03F00303D9B943F0B2
:1043D00008039908013B11740D2B0BD8DFE803F09B
:1043E0000D071C070A160D0D160A071C070D536949
:1043F000013B53615DF8044B704753695DF8044B12
:1044000001335361704743F00403E0E753695DF8FB
:10441000044B023B5361704753695DF8044B023310
:1044200053617047137C03F003030029D1D043F09C
:104430000403CEE720700020214BDA69D2E9001096
:10444000D3680968006810B41842946801EA04014E
:104450002ED0137C03F00303D9B943F00803990865
:10446000013B11740D2B0BD8DFE803F00D071C077F
:104470000A160D0D160A071C070D5369013B5361FF
:104480005DF8044B704753695DF8044B0133536189
:10449000704743F00403E0E753695DF8044B023BC7
:1044A0005361704753695DF8044B023353617047A1
:1044B000137C03F003030029D1D043F00403CEE7BB
:1044C00020700020214B1A6AD2E90010D3680968D5
:1044D000006810B41842946801EA04012ED0137CDD
:1044E00003F00303D9B943F008039908013B1174A1
:1044F0000D2B0BD8DFE803F00D071C070A160D0D76
:10450000160A071C070D5369013B53615DF8044B04
:10451000704753695DF8044B01335361704743F0B2
:104520000403E0E753695DF8044B023B53617047B5
:1045300053695DF8044B023353617047137C03F0F9
:1045400003030029D1D043F00403CEE720700020FC
:10455000214B5A6AD2E90010D3680968006810B488
:104560001842946801EA04012ED0137C03F003037F
:10457000D9B943F008039908013B11740D2B0BD8EE
:10458000DFE803F00D071C070A160D0D160A071CBD
:10459000070D5369013B53615DF8044B7047536944
:1045A0005DF8044B01335361704743F00403E0E7C7
:1045B00053695DF8044B023B5361704753695DF8E2
:1045C000044B023353617047137C03F0030300294B
:1045D000D1D043F00403CEE720700020214B9A6A2B
:1045E000D2E90010D3680968006810B418429468D2
:1045F00001EA04012ED0137C03F00303D9B943F080
:1046000008039908013B11740D2B0BD8DFE803F068
:104610000D071C070A160D0D160A071C070D536916
:10462000013B53615DF8044B704753695DF8044BDF
:1046300001335361704743F00403E0E753695DF8C9
:10464000044B023B5361704753695DF8044B0233DE
:1046500053617047137C03F003030029D1D043F06A
:104660000403CEE720700020214BDA6AD2E9001063
:10467000D3680968006810B41842946801EA04011C
:104680002ED0137C03F00303D9B943F00803990833
:10469000013B11740D2B0BD8DFE803F00D071C074D
:1046A0000A160D0D160A071C070D5369013B5361CD
:1046B0005DF8044B704753695DF8044B0133536157
:1046C000704743F00403E0E753695DF8044B023B95
:1046D0005361704753695DF8044B0233536170476F
:1046E000137C03F003030029D1D043F00403CEE789
:1046F00020700020214B1A6BD2E90010D3680968A2
:10470000006810B41842946801EA04012ED0137CAA
:1047100003F00303D9B943F008039908013B11746E
:104720000D2B0BD8DFE803F00D071C070A160D0D43
:10473000160A071C070D5369013B53615DF8044BD2
:10474000704753695DF8044B01335361704743F080
:104750000403E0E753695DF8044B023B5361704783
:1047600053695DF8044B023353617047137C03F0C7
:1047700003030029D1D043F00403CEE720700020CA
:10478000214B5A6BD2E90010D3680968006810B455
:104790001842946801EA04012ED0137C03F003034D
:1047A000D9B943F008039908013B11740D2B0BD8BC
:1047B000DFE803F00D071C070A160D0D160A071C8B
:1047C000070D5369013B53615DF8044B7047536912
:1047D0005DF8044B01335361704743F00403E0E795
:1047E00053695DF8044B023B5361704753695DF8B0
:1047F000044B023353617047137C03F00303002919
:10480000D1D043F00403CEE720700020214B9A68FA
:10481000D2E90010D3680968006810B4184294689F
:1048200001EA04012ED0137C03F00303D9B943F04D
:1048300008039908013B11740D2B0BD8DFE803F036
:104840000D071C070A160D0D160A071C070D5369E4
:10485000013B53615DF8044B704753695DF8044BAD
:1048600001335361704743F00403E0E753695DF897
:10487000044B023B5361704753695DF8044B0233AC
:1048800053617047137C03F003030029D1D043F038
:104890000403CEE720700020214BDA68D2E9001033
:1048A000D3680968006810B41842946801EA0401EA
:1048B0002ED0137C03F00303D9B943F00803990801
:1048C000013B11740D2B0BD8DFE803F00D071C071B
:1048D0000A160D0D160A071C070D5369013B53619B
:1048E0005DF8044B704753695DF8044B0133536125
:1048F000704743F00403E0E753695DF8044B023B63
:104900005361704753695DF8044B0233536170473C
:10491000137C03F003030029D1D043F00403CEE756
:1049200020700020214B1A69D2E90010D368096871
:10493000006810B41842946801EA04012ED0137C78
:1049400003F00303D9B943F008039908013B11743C
:104950000D2B0BD8DFE803F00D071C070A160D0D11
:10496000160A071C070D5369013B53615DF8044BA0
:10497000704753695DF8044B01335361704743F04E
:104980000403E0E753695DF8044B023B5361704751
:1049900053695DF8044B023353617047137C03F095
:1049A00003030029D1D043F00403CEE72070002098
:1049B000214B5A69D2E90010D3680968006810B425
:1049C0001842946801EA04012ED0137C03F003031B
:1049D000D9B943F008039908013B11740D2B0BD88A
:1049E000DFE803F00D071C070A160D0D160A071C59
:1049F000070D5369013B53615DF8044B70475369E0
:104A00005DF8044B01335361704743F00403E0E762
:104A100053695DF8044B023B5361704753695DF87D
:104A2000044B023353617047137C03F003030029E6
:104A3000D1D043F00403CEE720700020214B1A6848
:104A4000D2E90010D3680968006810B4184294686D
:104A500001EA04012ED0137C03F00303D9B943F01B
:104A600008039908013B11740D2B0BD8DFE803F004
:104A70000D071C070A160D0D160A071C070D5369B2
:104A8000013B53615DF8044B704753695DF8044B7B
:104A900001335361704743F00403E0E753695DF865
:104AA000044B023B5361704753695DF8044B02337A
:104AB00053617047137C03F003030029D1D043F006
:104AC0000403CEE720700020214B5A68D2E9001081
:104AD000D3680968006810B41842946801EA0401B8
:104AE0002ED0137C03F00303D9B943F008039908CF
:104AF000013B11740D2B0BD8DFE803F00D071C07E9
:104B00000A160D0D160A071C070D5369013B536168
:104B10005DF8044B704753695DF8044B01335361F2
:104B2000704743F00403E0E753695DF8044B023B30
:104B30005361704753695DF8044B0233536170470A
:104B4000137C03F003030029D1D043F00403CEE724
:104B500020700020224BD3F8D820D2E90010D3686F
:104B60000968006810B41842946801EA04012ED064
:104B7000137C03F00303D9B943F008039908013B00
:104B800011740D2B0BD8DFE803F00D071C070A1674
:104B90000D0D160A071C070D5369013B53615DF8A3
:104BA000044B704753695DF8044B01335361704700
:104BB00043F00403E0E753695DF8044B023B5361A3
:104BC000704753695DF8044B023353617047137C9F
:104BD00003F003030029D1D043F00403CEE700BF64
:104BE00020700020224BD3F8B820D2E90010D368FF
:104BF0000968006810B41842946801EA04012ED0D4
:104C0000137C03F00303D9B943F008039908013B6F
:104C100011740D2B0BD8DFE803F00D071C070A16E3
:104C20000D0D160A071C070D5369013B53615DF812
:104C3000044B704753695DF8044B0133536170476F
:104C400043F00403E0E753695DF8044B023B536112
:104C5000704753695DF8044B023353617047137C0E
:104C600003F003030029D1D043F00403CEE700BFD3
:104C700020700020224BD3F8BC20D2E90010D3686A
:104C80000968006810B41842946801EA04012ED043
:104C9000137C03F00303D9B943F008039908013BDF
:104CA00011740D2B0BD8DFE803F00D071C070A1653
:104CB0000D0D160A071C070D5369013B53615DF882
:104CC000044B704753695DF8044B013353617047DF
:104CD00043F00403E0E753695DF8044B023B536182
:104CE000704753695DF8044B023353617047137C7E
:104CF00003F003030029D1D043F00403CEE700BF43
:104D000020700020224BD3F8C020D2E90010D368D5
:104D10000968006810B41842946801EA04012ED0B2
:104D2000137C03F00303D9B943F008039908013B4E
:104D300011740D2B0BD8DFE803F00D071C070A16C2
:104D40000D0D160A071C070D5369013B53615DF8F1
:104D5000044B704753695DF8044B0133536170474E
:104D600043F00403E0E753695DF8044B023B5361F1
:104D7000704753695DF8044B023353617047137CED
:104D800003F003030029D1D043F00403CEE700BFB2
:104D900020700020224BD3F8C420D2E90010D36841
:104DA0000968006810B41842946801EA04012ED022
:104DB000137C03F00303D9B943F008039908013BBE
:104DC00011740D2B0BD8DFE803F00D071C070A1632
:104DD0000D0D160A071C070D5369013B53615DF861
:104DE000044B704753695DF8044B013353617047BE
:104DF00043F00403E0E753695DF8044B023B536161
:104E0000704753695DF8044B023353617047137C5C
:104E100003F003030029D1D043F00403CEE700BF21
:104E200020700020224BD3F8C820D2E90010D368AC
:104E30000968006810B41842946801EA04012ED091
:104E4000137C03F00303D9B943F008039908013B2D
:104E500011740D2B0BD8DFE803F00D071C070A16A1
:104E60000D0D160A071C070D5369013B53615DF8D0
:104E7000044B704753695DF8044B0133536170472D
:104E800043F00403E0E753695DF8044B023B5361D0
:104E9000704753695DF8044B023353617047137CCC
:104EA00003F003030029D1D043F00403CEE700BF91
:104EB00020700020224BD3F8CC20D2E90010D36818
:104EC0000968006810B41842946801EA04012ED001
:104ED000137C03F00303D9B943F008039908013B9D
:104EE00011740D2B0BD8DFE803F00D071C070A1611
:104EF0000D0D160A071C070D5369013B53615DF840
:104F0000044B704753695DF8044B0133536170479C
:104F100043F00403E0E753695DF8044B023B53613F
:104F2000704753695DF8044B023353617047137C3B
:104F300003F003030029D1D043F00403CEE700BF00
:104F400020700020224BD3F8D020D2E90010D36883
:104F50000968006810B41842946801EA04012ED070
:104F6000137C03F00303D9B943F008039908013B0C
:104F700011740D2B0BD8DFE803F00D071C070A1680
:104F80000D0D160A071C070D5369013B53615DF8AF
:104F9000044B704753695DF8044B0133536170470C
:104FA00043F00403E0E753695DF8044B023B5361AF
:104FB000704753695DF8044B023353617047137CAB
:104FC00003F003030029D1D043F00403CEE700BF70
:104FD00020700020224BD3F8D420D2E90010D368EF
:104FE0000968006810B41842946801EA04012ED0E0
:104FF000137C03F00303D9B943F008039908013B7C
:1050000011740D2B0BD8DFE803F00D071C070A16EF
:105010000D0D160A071C070D5369013B53615DF81E
:10502000044B704753695DF8044B0133536170477B
:1050300043F00403E0E753695DF8044B023B53611E
:10504000704753695DF8044B023353617047137C1A
:1050500003F003030029D1D043F00403CEE700BFDF
:1050600020700020214B9A6BD2E90010D3680968A8
:10507000006810B41842946801EA04012ED0137C31
:1050800003F00303D9B943F008039908013B1174F5
:105090000D2B0BD8DFE803F00D071C070A160D0DCA
:1050A000160A071C070D5369013B53615DF8044B59
:1050B000704753695DF8044B01335361704743F007
:1050C0000403E0E753695DF8044B023B536170470A
:1050D00053695DF8044B023353617047137C03F04E
:1050E00003030029D1D043F00403CEE72070002051
:1050F000214BDA6BD2E90010D3680968006810B45C
:105100001842946801EA04012ED0137C03F00303D3
:10511000D9B943F008039908013B11740D2B0BD842
:10512000DFE803F00D071C070A160D0D160A071C11
:10513000070D5369013B53615DF8044B7047536998
:105140005DF8044B01335361704743F00403E0E71B
:1051500053695DF8044B023B5361704753695DF836
:10516000044B023353617047137C03F0030300299F
:10517000D1D043F00403CEE720700020214B1A6CFD
:10518000D2E90010D3680968006810B41842946826
:1051900001EA04012ED0137C03F00303D9B943F0D4
:1051A00008039908013B11740D2B0BD8DFE803F0BD
:1051B0000D071C070A160D0D160A071C070D53696B
:1051C000013B53615DF8044B704753695DF8044B34
:1051D00001335361704743F00403E0E753695DF81E
:1051E000044B023B5361704753695DF8044B023333
:1051F00053617047137C03F003030029D1D043F0BF
:105200000403CEE720700020214B5A6CD2E9001035
:10521000D3680968006810B41842946801EA040170
:105220002ED0137C03F00303D9B943F00803990887
:10523000013B11740D2B0BD8DFE803F00D071C07A1
:105240000A160D0D160A071C070D5369013B536121
:105250005DF8044B704753695DF8044B01335361AB
:10526000704743F00403E0E753695DF8044B023BE9
:105270005361704753695DF8044B023353617047C3
:10528000137C03F003030029D1D043F00403CEE7DD
:1052900020700020214B9A6CD2E90010D368096875
:1052A000006810B41842946801EA04012ED0137CFF
:1052B00003F00303D9B943F008039908013B1174C3
:1052C0000D2B0BD8DFE803F00D071C070A160D0D98
:1052D000160A071C070D5369013B53615DF8044B27
:1052E000704753695DF8044B01335361704743F0D5
:1052F0000403E0E753695DF8044B023B53617047D8
:1053000053695DF8044B023353617047137C03F01B
:1053100003030029D1D043F00403CEE7207000201E
:10532000214BDA6CD2E90010D3680968006810B428
:105330001842946801EA04012ED0137C03F00303A1
:10534000D9B943F008039908013B11740D2B0BD810
:10535000DFE803F00D071C070A160D0D160A071CDF
:10536000070D5369013B53615DF8044B7047536966
:105370005DF8044B01335361704743F00403E0E7E9
:1053800053695DF8044B023B5361704753695DF804
:10539000044B023353617047137C03F0030300296D
:1053A000D1D043F00403CEE720700020214B1A6DCA
:1053B000D2E90010D3680968006810B418429468F4
:1053C00001EA04012ED0137C03F00303D9B943F0A2
:1053D00008039908013B11740D2B0BD8DFE803F08B
:1053E0000D071C070A160D0D160A071C070D536939
:1053F000013B53615DF8044B704753695DF8044B02
:1054000001335361704743F00403E0E753695DF8EB
:10541000044B023B5361704753695DF8044B023300
:1054200053617047137C03F003030029D1D043F08C
:105430000403CEE720700020214B5A6DD2E9001002
:10544000D3680968006810B41842946801EA04013E
:105450002ED0137C03F00303D9B943F00803990855
:10546000013B11740D2B0BD8DFE803F00D071C076F
:105470000A160D0D160A071C070D5369013B5361EF
:105480005DF8044B704753695DF8044B0133536179
:10549000704743F00403E0E753695DF8044B023BB7
:1054A0005361704753695DF8044B02335361704791
:1054B000137C03F003030029D1D043F00403CEE7AB
:1054C00020700020214B9A6DD2E90010D368096842
:1054D000006810B41842946801EA04012ED0137CCD
:1054E00003F00303D9B943F008039908013B117491
:1054F0000D2B0BD8DFE803F00D071C070A160D0D66
:10550000160A071C070D5369013B53615DF8044BF4
:10551000704753695DF8044B01335361704743F0A2
:105520000403E0E753695DF8044B023B53617047A5
:1055300053695DF8044B023353617047137C03F0E9
:1055400003030029D1D043F00403CEE720700020EC
:10555000214BDA6DD2E90010D3680968006810B4F5
:105560001842946801EA04012ED0137C03F003036F
:10557000D9B943F008039908013B11740D2B0BD8DE
:10558000DFE803F00D071C070A160D0D160A071CAD
:10559000070D5369013B53615DF8044B7047536934
:1055A0005DF8044B01335361704743F00403E0E7B7
:1055B00053695DF8044B023B5361704753695DF8D2
:1055C000044B023353617047137C03F0030300293B
:1055D000D1D043F00403CEE720700020214B1A6E97
:1055E000D2E90010D3680968006810B418429468C2
:1055F00001EA04012ED0137C03F00303D9B943F070
:1056000008039908013B11740D2B0BD8DFE803F058
:105610000D071C070A160D0D160A071C070D536906
:10562000013B53615DF8044B704753695DF8044BCF
:1056300001335361704743F00403E0E753695DF8B9
:10564000044B023B5361704753695DF8044B0233CE
:1056500053617047137C03F003030029D1D043F05A
:105660000403CEE720700020214B5A6ED2E90010CF
:10567000D3680968006810B41842946801EA04010C
:105680002ED0137C03F00303D9B943F00803990823
:10569000013B11740D2B0BD8DFE803F00D071C073D
:1056A0000A160D0D160A071C070D5369013B5361BD
:1056B0005DF8044B704753695DF8044B0133536147
:1056C000704743F00403E0E753695DF8044B023B85
:1056D0005361704753695DF8044B0233536170475F
:1056E000137C03F003030029D1D043F00403CEE779
:1056F00020700020214B9A6ED2E90010D36809680F
:10570000006810B41842946801EA04012ED0137C9A
:1057100003F00303D9B943F008039908013B11745E
:105720000D2B0BD8DFE803F00D071C070A160D0D33
:10573000160A071C070D5369013B53615DF8044BC2
:10574000704753695DF8044B01335361704743F070
:105750000403E0E753695DF8044B023B5361704773
:1057600053695DF8044B023353617047137C03F0B7
:1057700003030029D1D043F00403CEE720700020BA
:10578000214BDA6ED2E90010D3680968006810B4C2
:105790001842946801EA04012ED0137C03F003033D
:1057A000D9B943F008039908013B11740D2B0BD8AC
:1057B000DFE803F00D071C070A160D0D160A071C7B
:1057C000070D5369013B53615DF8044B7047536902
:1057D0005DF8044B01335361704743F00403E0E785
:1057E00053695DF8044B023B5361704753695DF8A0
:1057F000044B023353617047137C03F00303002909
:10580000D1D043F00403CEE720700020214B1A6F63
:10581000D2E90010D3680968006810B4184294688F
:1058200001EA04012ED0137C03F00303D9B943F03D
:1058300008039908013B11740D2B0BD8DFE803F026
:105840000D071C070A160D0D160A071C070D5369D4
:10585000013B53615DF8044B704753695DF8044B9D
:1058600001335361704743F00403E0E753695DF887
:10587000044B023B5361704753695DF8044B02339C
:1058800053617047137C03F003030029D1D043F028
:105890000403CEE720700020214B5A6FD2E900109C
:1058A000D3680968006810B41842946801EA0401DA
:1058B0002ED0137C03F00303D9B943F008039908F1
:1058C000013B11740D2B0BD8DFE803F00D071C070B
:1058D0000A160D0D160A071C070D5369013B53618B
:1058E0005DF8044B704753695DF8044B0133536115
:1058F000704743F00403E0E753695DF8044B023B53
:105900005361704753695DF8044B0233536170472C
:10591000137C03F003030029D1D043F00403CEE746
:1059200020700020214B9A6FD2E90010D3680968DB
:10593000006810B41842946801EA04012ED0137C68
:1059400003F00303D9B943F008039908013B11742C
:105950000D2B0BD8DFE803F00D071C070A160D0D01
:10596000160A071C070D5369013B53615DF8044B90
:10597000704753695DF8044B01335361704743F03E
:105980000403E0E753695DF8044B023B5361704741
:1059900053695DF8044B023353617047137C03F085
:1059A00003030029D1D043F00403CEE72070002088
:1059B000214BDA6FD2E90010D3680968006810B48F
:1059C0001842946801EA04012ED0137C03F003030B
:1059D000D9B943F008039908013B11740D2B0BD87A
:1059E000DFE803F00D071C070A160D0D160A071C49
:1059F000070D5369013B53615DF8044B70475369D0
:105A00005DF8044B01335361704743F00403E0E752
:105A100053695DF8044B023B5361704753695DF86D
:105A2000044B023353617047137C03F003030029D6
:105A3000D1D043F00403CEE720700020224BD3F8EE
:105A40008020D2E90010D3680968006810B41842B9
:105A5000946801EA04012ED0137C03F00303D9B942
:105A600043F008039908013B11740D2B0BD8DFE8B4
:105A700003F00D071C070A160D0D160A071C070D6B
:105A80005369013B53615DF8044B704753695DF8FE
:105A9000044B01335361704743F00403E0E753695B
:105AA0005DF8044B023B5361704753695DF8044B4A
:105AB000023353617047137C03F003030029D1D0F4
:105AC00043F00403CEE700BF20700020224BD3F840
:105AD0008420D2E90010D3680968006810B4184225
:105AE000946801EA04012ED0137C03F00303D9B9B2
:105AF00043F008039908013B11740D2B0BD8DFE824
:105B000003F00D071C070A160D0D160A071C070DDA
:105B10005369013B53615DF8044B704753695DF86D
:105B2000044B01335361704743F00403E0E75369CA
:105B30005DF8044B023B5361704753695DF8044BB9
:105B4000023353617047137C03F003030029D1D063
:105B500043F00403CEE700BF20700020224BD3F8AF
:105B60008820D2E90010D3680968006810B4184290
:105B7000946801EA04012ED0137C03F00303D9B921
:105B800043F008039908013B11740D2B0BD8DFE893
:105B900003F00D071C070A160D0D160A071C070D4A
:105BA0005369013B53615DF8044B704753695DF8DD
:105BB000044B01335361704743F00403E0E753693A
:105BC0005DF8044B023B5361704753695DF8044B29
:105BD000023353617047137C03F003030029D1D0D3
:105BE00043F00403CEE700BF20700020224BD3F81F
:105BF0008C20D2E90010D3680968006810B41842FC
:105C0000946801EA04012ED0137C03F00303D9B990
:105C100043F008039908013B11740D2B0BD8DFE802
:105C200003F00D071C070A160D0D160A071C070DB9
:105C30005369013B53615DF8044B704753695DF84C
:105C4000044B01335361704743F00403E0E75369A9
:105C50005DF8044B023B5361704753695DF8044B98
:105C6000023353617047137C03F003030029D1D042
:105C700043F00403CEE700BF20700020224BD3F88E
:105C80009020D2E90010D3680968006810B4184267
:105C9000946801EA04012ED0137C03F00303D9B900
:105CA00043F008039908013B11740D2B0BD8DFE872
:105CB00003F00D071C070A160D0D160A071C070D29
:105CC0005369013B53615DF8044B704753695DF8BC
:105CD000044B01335361704743F00403E0E7536919
:105CE0005DF8044B023B5361704753695DF8044B08
:105CF000023353617047137C03F003030029D1D0B2
:105D000043F00403CEE700BF20700020224BD3F8FD
:105D10009420D2E90010D3680968006810B41842D2
:105D2000946801EA04012ED0137C03F00303D9B96F
:105D300043F008039908013B11740D2B0BD8DFE8E1
:105D400003F00D071C070A160D0D160A071C070D98
:105D50005369013B53615DF8044B704753695DF82B
:105D6000044B01335361704743F00403E0E7536988
:105D70005DF8044B023B5361704753695DF8044B77
:105D8000023353617047137C03F003030029D1D021
:105D900043F00403CEE700BF20700020224BD3F86D
:105DA0009820D2E90010D3680968006810B418423E
:105DB000946801EA04012ED0137C03F00303D9B9DF
:105DC00043F008039908013B11740D2B0BD8DFE851
:105DD00003F00D071C070A160D0D160A071C070D08
:105DE0005369013B53615DF8044B704753695DF89B
:105DF000044B01335361704743F00403E0E75369F8
:105E00005DF8044B023B5361704753695DF8044BE6
:105E1000023353617047137C03F003030029D1D090
:105E200043F00403CEE700BF20700020224BD3F8DC
:105E30009C20D2E90010D3680968006810B41842A9
:105E4000946801EA04012ED0137C03F00303D9B94E
:105E500043F008039908013B11740D2B0BD8DFE8C0
:105E600003F00D071C070A160D0D160A071C070D77
:105E70005369013B53615DF8044B704753695DF80A
:105E8000044B01335361704743F00403E0E7536967
:105E90005DF8044B023B5361704753695DF8044B56
:105EA000023353617047137C03F003030029D1D000
:105EB00043F00403CEE700BF20700020224BD3F84C
:105EC000A020D2E90010D3680968006810B4184215
:105ED000946801EA04012ED0137C03F00303D9B9BE
:105EE00043F008039908013B11740D2B0BD8DFE830
:105EF00003F00D071C070A160D0D160A071C070DE7
:105F00005369013B53615DF8044B704753695DF879
:105F1000044B01335361704743F00403E0E75369D6
:105F20005DF8044B023B5361704753695DF8044BC5
:105F3000023353617047137C03F003030029D1D06F
:105F400043F00403CEE700BF20700020224BD3F8BB
:105F5000A420D2E90010D3680968006810B4184280
:105F6000946801EA04012ED0137C03F00303D9B92D
:105F700043F008039908013B11740D2B0BD8DFE89F
:105F800003F00D071C070A160D0D160A071C070D56
:105F90005369013B53615DF8044B704753695DF8E9
:105FA000044B01335361704743F00403E0E7536946
:105FB0005DF8044B023B5361704753695DF8044B35
:105FC000023353617047137C03F003030029D1D0DF
:105FD00043F00403CEE700BF20700020224BD3F82B
:105FE000A820D2E90010D3680968006810B41842EC
:105FF000946801EA04012ED0137C03F00303D9B99D
:1060000043F008039908013B11740D2B0BD8DFE80E
:1060100003F00D071C070A160D0D160A071C070DC5
:106020005369013B53615DF8044B704753695DF858
:10603000044B01335361704743F00403E0E75369B5
:106040005DF8044B023B5361704753695DF8044BA4
:10605000023353617047137C03F003030029D1D04E
:1060600043F00403CEE700BF20700020224BD3F89A
:10607000AC20D2E90010D3680968006810B4184257
:10608000946801EA04012ED0137C03F00303D9B90C
:1060900043F008039908013B11740D2B0BD8DFE87E
:1060A00003F00D071C070A160D0D160A071C070D35
:1060B0005369013B53615DF8044B704753695DF8C8
:1060C000044B01335361704743F00403E0E7536925
:1060D0005DF8044B023B5361704753695DF8044B14
:1060E000023353617047137C03F003030029D1D0BE
:1060F00043F00403CEE700BF2070002010B584B049
:1061000004460391029214F04BF900222046DDE987
:106110000231009214F0B8F9204604B010BD00BF5F
:1061200003460022134910B4134C43F8184B4FF4A4
:10613000807482610481C0E903230B68C3B11A46ED
:106140005B69002BFBD1506100230C4A4FF46814AB
:106150000B4943614360837202604FF00052037742
:10616000084BC0E90A41C0E90C235DF8044B7047B5
:106170000860E9E7486D0020C8260020F4270020C9
:106180000E00C10076061C0003460022144910B41C
:10619000144C43F8344B4FF40074C0E903230B68EC
:1061A0000481C0E90D22CBB11A465B69002BFBD1FB
:1061B00050610D4900230D4A0D4C01604FF4805190
:1061C00082610C4A436143608372C0E90741C0E9C0
:1061D00009235DF8044BC0E90B3370470860E8E71A
:1061E000486D0020C8260020B428002089298F048B
:1061F00058EA8E0480F9855A0022034613494FF469
:10620000806C10B4124C43F8284BA0F808C0C0E9C9
:1062100003230B68C0E90A22C0E90C229BB11A468D
:106220005B69002BFBD1506100224FF48033094998
:106230005DF8044B4261426082720160C0E906333E
:10624000C0E9083370470860EEE700BF486D0020E2
:10625000C8260020BC26002010B5D0F880448EB09F
:106260000A463CB100232146684600930EF08CFD9F
:106270000EB010BDD0F8841431B1234668460C949A
:106280000CF0A0FE0EB010BD08460EB010BD00BF51
:1062900010B5044600694368013B43603BB903689D
:1062A000DB6A9847206910B103685B689847002350
:1062B000236110BD012BF0B5054695B03DD0022BF2
:1062C00040F2022001F104010CBF0346002368469E
:1062D00010F084FF129B002B38D05C20002615F0B4
:1062E000E5FD214B04AF0446C0E90036019B394669
:1062F000183040F80C3C1D4B40F8103C029B40F815
:10630000083C9DF80C3000F8043C10F00BFE184BD4
:106310004FF47A72A665A360164B6E602B606368BB
:106320002E730133AA602C616360134B38460093CF
:1063300010F03AFE284615B0F0BD44F202230431B5
:10634000684610F04BFF129B002BC6D1139B002B0D
:10635000C3D14FF47A71074A04AF2B732A602B61C3
:10636000C5E90131E1E700BF102900206C290020B8
:10637000EC280020C0280020982600201349002285
:1063800038B5134D04460B68056002610281C26096
:10639000D3B11A465B69002BFBD1546100230D4930
:1063A0004FF0804204F138006360A3722160A3863D
:1063B000C4E90533C4E90733C4E90932C4E90B333E
:1063C0000BF02AFE204638BD0860E7E7486D002044
:1063D000C8260020E8270020D0E90021C368126801
:1063E000096810B41942846802EA04022ED0037CC2
:1063F00003F00303DAB943F008039A08013B02747F
:106400000D2B0BD8DFE803F00D071C070A160D0D46
:10641000160A071C070D4369013B43615DF8044BF5
:10642000704743695DF8044B01334361704743F0A3
:106430000403E0E743695DF8044B023B43617047A6
:1064400043695DF8044B023343617047037C03F0FA
:106450000303002AD1D043F00403CEE708B5034B71
:10646000D3F8B400FFF7B8FF08BD00BF20700020CC
:1064700008B5034BD3F8B000FFF7AEFF08BD00BF6F
:10648000207000200B4610B5362800F29782DFE816
:1064900010F08C0282027902700267025E025502DD
:1064A0004C0243023A02310228021F02BF01B60128
:1064B000AD01A4019B0192018901800177016E0168
:1064C00065015C0153014A01410138012F01260198
:1064D0001D0113010901FF00F500EB00E100D700E9
:1064E000CD00C300B900AF00A5009B00910087005C
:1064F0007D00730069005F0055004B0041003700CC
:10650000C84C0422C8493620C4F8D83015F0AAFB7C
:10651000012010BDC34C0422C4493520C4F8D43036
:1065200015F0A0FB012010BDBE4C0422C049342050
:10653000C4F8D03015F096FB012010BDB94C0422F0
:10654000BC493320C4F8CC3015F08CFB012010BDC1
:10655000B44C0422B8493220C4F8C83015F082FB8C
:10656000012010BDAF4C0422B4493120C4F8C4301E
:1065700015F078FB012010BDAA4C0422B049302050
:10658000C4F8C03015F06EFB012010BDA54C0422EC
:10659000AC492F20C4F8BC3015F064FB012010BDBD
:1065A000A04C0422A8492E20C4F8B83015F05AFB9C
:1065B000012010BD9B4C0422A4492D20C4F8B43006
:1065C00015F050FB012010BD964C0422A0492C2050
:1065D000C4F8B03015F046FB012010BD914C0422E8
:1065E0009C492B20C4F8AC3015F03CFB012010BDB9
:1065F0008C4C042298492A20C4F8A83015F032FBAC
:10660000012010BD874C042294492920C4F8A430ED
:1066100015F028FB012010BD824C0422904928204F
:10662000C4F8A03015F01EFB012010BD7D4C0422E3
:106630008C492720C4F89C3015F014FB012010BDB4
:10664000784C042288492620C4F8983015F00AFBBB
:10665000012010BD734C042284492520C4F89430D5
:1066600015F000FB012010BD6E4C0422804924204F
:10667000C4F8903015F0F6FA012010BD694C0422E0
:106680007C492320C4F88C3015F0ECFA012010BDB1
:10669000644C042278492220C4F8883015F0E2FACC
:1066A000012010BD5F4C042274492120C4F88430BD
:1066B00015F0D8FA012010BD5A4C04227049202050
:1066C000C4F8803015F0CEFA012010BD554C0422DC
:1066D0006C491F20E36715F0C5FA012010BD514C2D
:1066E000042269491E20A36715F0BCFA012010BDE1
:1066F0004C4C042265491D20636715F0B3FA012054
:1067000010BD484C042262491C20236715F0AAFAE8
:10671000012010BD434C04225E491B20E36615F0A6
:10672000A1FA012010BD3F4C04225B491A20A36648
:1067300015F098FA012010BD3A4C0422574919204F
:10674000636615F08FFA012010BD364C04225449BF
:106750001820236615F086FA012010BD314C042262
:1067600050491720E36515F07DFA012010BD2D4C2E
:1067700004224D491620A36515F074FA012010BDBE
:10678000284C042249491520636515F06BFA012055
:1067900010BD244C042246491420236515F062FAEA
:1067A000012010BD1F4C042242491320E36415F060
:1067B00059FA012010BD1B4C04223F491220A3644A
:1067C00015F050FA012010BD164C04223B4911204F
:1067D000636415F047FA012010BD124C04223849B9
:1067E0001020236415F03EFA012010BD0D4C042248
:1067F00034490F20E36315F035FA012010BD094C30
:10680000042231490E20A36315F02CFA012010BD9B
:10681000044C04222D490D20636315F023FA012056
:1068200010BD00BF20700020D51B000055200000C7
:10683000C51F0000351F0000A51E0000151E00002A
:10684000851D0000F51C0000651C0000DD34000003
:10685000F1340000ED3000005D300000CD2F00006D
:106860003D2F0000AD2E00001D2E00008D2D0000DC
:10687000FD2C00006D2C0000DD2B00004D2B0000D6
:10688000BD2A0000312A0000A529000019290000B6
:106890008D2800000128000075270000E92600006F
:1068A0005D260000D125000045250000B924000028
:1068B0002D240000A12300001523000089220000E0
:1068C000FD21000071210000E520000001180000FA
:1068D0003B4C04223B490C20236315F0C3F90120F3
:1068E00010BD374C042238490B20E36215F0BAF989
:1068F000012010BD324C042234490A20A36215F055
:10690000B1F9012010BD2E4C0422314909206362E7
:1069100015F0A8F9012010BD294C04222D490820AA
:10692000236215F09FF9012010BD254C04222A494D
:106930000720E36115F096F9012010BD204C0422D8
:1069400026490620A36115F08DF9012010BD1C4CCD
:10695000042223490520636115F084F9012010BD4C
:106960000422174C1F491046236115F07BF90120C2
:1069700010BD134C04221C490320E36015F072F98A
:10698000012010BD0E4C042218490220A36015F00E
:1069900069F9012010BD04460948042214494360E6
:1069A000012015F05FF9204610BD054C0422114965
:1069B0000020236015F056F9012010BD002010BD05
:1069C0002070002075170000E91600005D16000019
:1069D000D115000045150000B91400002D14000069
:1069E000311A0000A5190000191900008D180000C7
:1069F000491B0000BD1A00002DE9F0410F46164664
:106A000004460221384614F0E7FE0221304614F015
:106A1000E3FE224B3A0122483101DFF88CC053F8E3
:106A2000028003EB0712C4F80080D2F80CE003EBFD
:106A3000061259580023C4F808E0D2686361194B64
:106A4000E26045681B686160ACFB033C4FF4FA638D
:106A50004FEA9C4C03FB0CFC43685B1B9C45FBD83A
:106A6000D8F80030384609681EEA030F14BF012326
:106A700000230A42214618BF43F002032374FFF7A4
:106A800001FD0346214630462376FFF7FBFC227EBC
:106A90000346204613442376BDE8F0810C390020DC
:106AA000001000E0F04F002083DE1B432DE9F0478B
:106AB00000EB010884B004460E4698F81050924648
:106AC000FF2D30D04FF0010801238DF80B508DF8C9
:106AD0000C608DF80E30A3688DF80DA08DF80F8036
:106AE000002B66D00DF10F03204603AA0DF10B0118
:106AF00001930DF10E0300930DF10D03E76804EB14
:106B00008504B8472C48CDF804803346CDF800A062
:106B10002A4600682949C4F8E400294814F08EF890
:106B200004B0BDE8F08790F8A01051B300F18F03D6
:106B30004FF0FF3E4FF0000C00F1A40904E00CF10F
:106B4000010081420FD0844613F8012FFF2AF6D1AD
:106B500059F82C209645F2D90CF1010096465FFABF
:106B60008CF58142EFD1FF2D13D08D4209D26319EC
:106B7000FF2D83F8906088F81050D1D04FF00008B6
:106B8000A2E732460F490E4804B0BDE8F04714F0C2
:106B900055B804F1E000002300E0134650F8042F3C
:106BA000724501D29646DDB29C4503F10102F4D153
:106BB000DBE717F019FD00BF6C8E002030230020AA
:106BC0004C5000201C2300202DE9F04FDFF83483C7
:106BD00098F800302DED088B95B0002B00F0C880A0
:106BE000DFF824930124B24DD9F800309FEDB1BAFB
:106BF000DFF818B3DFF818A39FEDA7AB9FEDA89BB4
:106C00009FEDA98B06E00D2E67D001340435112CC1
:106C100000F0878003EB0312190122445BF8326015
:106C2000002EF2D00AEB8600D0F804010028ECD147
:106C3000082E40F2CA800E2EE5D1F6EE007A95EDD0
